:0300000002029960
:0C029900787FE4F6D8FD7581300202E0A9
:100026001204B61204F61205271204E4E51760035B
:1000360002014D20B40302010B20B70302010B207D
:10004600B50302010BE512451160030200F5F51533
:10005600C3E52C94B8E52B940B5027E508B4520E53
:100066007513FF75144C750F007510B4800C75135D
:10007600007514B4750FFF75104C051575110075D4
:1000860012FAC3E52894B8E527940B5014751300AB
:100096007514B4750FFF75104C7511007512640553
:1000A60015C3E52A94B8E529940B50147513FF750A
:1000B600144C750F007510B4751100751264051592
:1000C600C3E52E94B8E52D940B500E7513FF7514E9
:1000D6004C750FFF75104C0515E5156003020032CF
:1000E6007513FF75144C750FFF75104C020032C363
:1000F600E52E94B8E52D940B4003020032E4F51189
:10010600F51202003220B50F750FFF75104C7513EE
:10011600FF75144C75175020B712750FFF75104CEC
:100126007513007514B475084C75177830B403024E
:100136000032750F007510B47513FF75144C7508F1
:1001460052751778020032C3E52E94B8E52D940B4C
:0B0156004003020032E4F51702003203
:10045300011600011700020D056602090566010B6E
:10046300FF010C0002110000010800011500021336
:060473000000020F000072
:1004E400438910758DDCE4F58BD2AFD2ABD28ED2BA
:0204F400BB2229
:03001B000201617E
:10016100C0E0C0D0E5102466F50EE50F3405F50DAD
:10017100C374669514F50A74059513F509850B8DFD
:10018100850C8BE517D3940040021517D3E5129423
:1001910000E51194004008E51215127002151105D1
:1001A10016E516D394074003751600E5161424FDD1
:1001B1005014602824FC502E2408703ED290750BF8
:1001C100F1750C9A8034C290C374FF950A74FF953F
:1001D10009F50BC374FF950AF50C801E750BF175BB
:1001E1000C9AD2918014C374FF950E74FF950DF58E
:0F01F1000BC374FF950EF50CC291D0D0D0E03245
:1004B600D2CCD2CD75CBFF75CADC759850E4F587E2
:0904C600D2CAD2AFD2ADC2BC22F1
:0300230002052EA5
:05052E00859919C29837
:010533003295
:08000E008F18120519AF18222A
:0E051900C2ACC2998F993099FDC299D2AC2222
:100479000223000002250000C100022F0000082706
:0C0489007530000000000000022100009F
:1004CF00000000000000000000000000000000001D
:0504DF000000000022F6
:07052700D288D2A8C2B8225D
:1004F600438901758CDCE4F58AD2AFD2A9D28CC2CD
:02050600B92218
:03000B000203A449
:1003A400C0E0C0F0C083C082C0D075D000C000C01F
:1003B40001C002C003C004C005C006C007758CDCC0
:1003C400758A000530E5307002052FD39403E52FBC
:1003D40094004006752F00753000AF30120200D033
:1003E40007D006D005D004D003D002D001D000D06D
:0A03F400D0D082D083D0F0D0E032E8
:03000300020325D0
:10032500C0E0C0D075D000C000C006C007C2A8AFED
:100335008CEF752400F523AF8AEF2524F524E435E9
:1003450023F523000000E5A054F06004D2A8804402
:10035500300041C3E5249526FFE5239525FED3EF1F
:1003650094C8EE9400402DE53025E02427F83000B0
:1003750009A60608A607C20080057675087630D35B
:10038500E522941EE5216480948040067521007560
:0F0395002200B297D007D006D000D0D0D0E032EF
:100200007DF47C01C2A8E5A054F0602730A40675F7
:10021000277575283030A506752975752A3030A6E2
:1002200006752B75752C3030A706752D75752E301B
:1002300053A00FEF14601514601D14602524037083
:100240002AD2A4D2A01204CFC2A0801FD2A5D2A1CC
:100250001204CFC2A18014D2A6D2A21204CFC2A28D
:100260008009D2A7D2A31204CFC2A30020B20AED04
:100270001DAE0470011C4E70F3ED4C6019AF8CEF95
:10028000752600F525AF8AEF2526F526E43525F5F8
:0802900025D200D2A822C20011
:010298002243
:100508007C007D0A1203FEEF1F70011E144E70F767
:0105180022C0
:10049600E4FDFCC3ED9FEC9E5015E4FAFB0BBB009C
:0F04A600010AEB64794A70F50DBD00010C80E48A
:0104B5002224
:1002A500020026E493A3F8E493A34003F68001F249
:1002B50008DFF48029E493A3F85407240CC8C3335A
:1002C500C4540F4420C8834004F456800146F6DF29
:1002D500E4800B0102040810204080900453E47E62
:1002E500019360BCA3FF543F30E509541FFEE4931E
:1002F500A360010ECF54C025E060A840B8E493A3E5
:10030500FAE493A3F8E493A3C8C582C8CAC583CA0F
:10031500F0A3C8C582C8CAC583CADFE9DEE780BEC7
:010495000066
:1003FE00BC000BBE0029EF8DF084FFADF022E4CCE3
:10040E00F875F008EF2FFFEE33FEEC33FCEE9DECAB
:10041E00984005FCEE9DFE0FD5F0E9E4CEFD22EDF1
:10042E00F8F5F0EE8420D21CFEADF075F008EF2F3B
:10043E00FFED33FD4007985006D5F0F222C398FD2C
:05044E000FD5F0EA22C9
:00000001FF
