:030000000206AB4A
:0C06AB00787FE4F6D8FD75813B0206F272
:04082B0025780A0022
:090612001207B712080012078B51
:10061B00E4F523F524F525E4FF1207CBEF2524F5AC
:10062B0024E43523F5230525E525C3946440E8AE82
:10063B0023AF247C067D4012052F8E238F24C37499
:10064B000F9524F524E49523F523852422E522C474
:10065B0054F0F522E4F523F524F5257F011207CBA1
:10066B00EF2524F524E43523F5230525E525C3944F
:10067B006440E8AE23AF247C067D4012052F8E2309
:10068B008F24EF4222AF221203827BFF7A08792B51
:0D069B008522291200887F6E7E001207372D
:0306A80002061B2C
:10078B00438920439850758DFD858D8BE4F587D279
:06079B00AFD2ACD28E22A9
:03002300020825AB
:0508250085993BC2981B
:01082A00329B
:080003008F3A12080FAF3A22F8
:0E080F00C2ACC2998F993099FDC299D2AC2229
:07081D00050F55000000006B
:1007A100EF1FAA0670011E4A600BE4FDEDC39473AE
:0507B10050EE0D80F781
:0107B6002220
:1007F000758901758CFF758AF4D2AFD2A9D28C228B
:1007B7001207F0E4F50BF50CF508C209C2A1F5091B
:0407C700750A01228C
:10038200750D02750EB4750801E4F50BF50CC3E5A5
:100392000C950EE50B950D40F5750D01750E5AE4A1
:1003A200F508F50BF50CC3E50C950EE50B950D4024
:1003B200F5AE09E4FDFC750D00750E2A750801E421
:1003C200F50BF50CC3E50C950EE50B950D40F5EE1E
:1003D200A2E71325E0FBC3EE9B6008750D00750EC6
:1003E200828006750D00750E2BE4F508F50BF50CF1
:1003F200C3E50C950EE50B950D40F5EEA2E713FE55
:100402000DBD00010CED64084C70ABAE0AE4FCFDBE
:10041200750D00750E2B750801E4F50BF50CC3E59F
:100422000C950EE50B950D40F5EEA2E71325E0FBCA
:10043200C3EE9B750D00750E2BE4F508F50BF50C5C
:10044200C3E50C950EE50B950D40F5EEA2E713FE04
:100452000DBD00010CED64084C70B5AE07E4FCFD67
:10046200750D00750E2B750801E4F50BF50CC3E54F
:100472000C950EE50B950D40F5EEA2E71325E0FB7A
:10048200C3EE9B6008750D00750E828006750D0027
:10049200750E2BE4F508F50BF50CC3E50C950EE58E
:1004A2000B950D40F5EEA2E713FE0DBD00010CED1C
:1004B20064084C70ABEFF4FEE4FCFD750D00750EA4
:1004C2002B750801E4F50BF50CC3E50C950EE50B55
:1004D200950D40F5EEA2E71325E0FFC3EE9F6008FD
:1004E200750D00750E838006750D00750E2BE4F5F3
:1004F20008F50BF50CC3E50C950EE50B950D40F5D3
:10050200EEA2E713FE0DBD00010CED64084C70ABCA
:10051200750D00750E82750801E4F50BF50CC3E547
:0C0522000C950EE50B950D40F5E4F50876
:01052E0022AA
:03082F00DFFE22C7
:10000E00AE07AF061EEF600C7FEA12082F7FEA12D2
:05001E00082F80EE2216
:03000B0002077277
:10077200C0E0758CFF758AF4050CE50C7002050B60
:09078200E5086002B2A1D0E032EA
:1007DF007C007D0A12052FEF1F70011E144E70F75B
:0107EF0022E7
:10073700E4FDFCC3ED9FEC9E5015E4FAFB0BBB00F8
:0F074700010AEB64794A70F50DBD00010C80E4E6
:010756002280
:1007CB00EF4488F5BC00000000E5BC30E4FB53BCF3
:0407DB00EFAFBD229D
:0F080000759DFFE4F5BD75BC887F02FE020757AA
:10075700EF1FAA0670011E4A60107C137D88ED1DED
:0A076700AA0470011C4A60E880F447
:010771002265
:1006B700020612E493A3F8E493A34003F68001F241
:1006C70008DFF48029E493A3F85407240CC8C33344
:1006D700C4540F4420C8834004F456800146F6DF13
:1006E700E4800B010204081020408090081DE47E7E
:1006F700019360BCA3FF543F30E509541FFEE49308
:10070700A360010ECF54C025E060A840B8E493A3CE
:10071700FAE493A3F8E493A3C8C582C8CAC583CAF9
:10072700F0A3C8C582C8CAC583CADFE9DEE780BEB1
:0108240000D3
:10052F00BC000BBE0029EF8DF084FFADF022E4CCB0
:10053F00F875F008EF2FFFEE33FEEC33FCEE9DEC79
:10054F00984005FCEE9DFE0FD5F0E9E4CEFD22EDBF
:10055F00F8F5F0EE8420D21CFEADF075F008EF2F09
:10056F00FFED33FD4007985006D5F0F222C398FDFA
:05057F000FD5F0EA2297
:10002600E5352429F8E605352278263007027829B1
:10003600E475F0011205DC0205842000EB7F2ED268
:10004600008018EF540F2490D43440D4FF30040BB2
:10005600EF24BFB41A0050032461FFE53660021591
:10006600360539E5397002053830070D7826E4750E
:10007600F0011205DCEF0205CA0200037403D20781
:100086008003E4C207F5358B268A278928E4F536EE
:10009600F538F539E53660077F2012006180F57581
:1000A60037FFC201C200C202C203C205C206C208AD
:1000B60012002FFF700D3007057F00120072AF3956
:1000C600AE3822B4255FC2D5C20412002FFF24D059
:1000D600B40A00501A75F00A783630D50508B6FF0E
:1000E6000106C6A426F620D5047002D20380D924C0
:1000F600CFB41A00EF5004C2E5D204020272D20154
:1001060080C6D20080C0D20280BCD2D580BAD205C9
:1001160080B47F201200612002077401B5360040CA
:10012600F1120026FF12006102009AD208D2068060
:1001360095120026FB120026FA120026F94A4B7089
:100146000679437A037BFF20022EE536602A7E007D
:100156008E8275830012059D60060EEE653770F07F
:10016600C2D5EBC0E0EAC0E0E9C0E0EE1202B9D0C9
:10017600E0F9D0E0FAD0E0FB120584FF60AAEBC0FC
:10018600E0EAC0E0E9C0E0120061D0E02401F9D065
:10019600E03400FAD0E0FBE5370460DCD537D980DF
:1001A600877BFF7A0279B5D202809C79108002792A
:1001B60008C206C2088008D2D5790A8004790AC224
:1001C600D5E537047002F537E4FAFDFEFF12002686
:1001D600FC7B08200113120026FD7B1030000A125A
:1001E6000026FE120026FF7B20EC3382D592D550E6
:1001F60013C3E43000069FFFE49EFEE42001039D46
:10020600FDE49CFCE4CBF8C201EC700CCFCECDCC67
:10021600E824F8F870F38017C3EF33FFEE33FEEDF2
:1002260033FDEC33FCEB33FB994002FB0FD8E9EBD3
:10023600300105F8D0E0C448B201C0E00AEC4D4EEA
:100246004F78207B0070C2EAB5370040BCC0E01290
:1002560002BBD0F0D0E0200104C4C0E0C4B201C0AB
:10026600F012004AD0F0D5F0EB02009A1205EC012C
:10027600375301B15801084C01044201B54F01BD85
:0F0286004401BD49011D4301C35501A74601A70E
:100295004501A747036350010C2D01102E01332B97
:1002A500011423013120034C2A00CC480000012B06
:1002B5003F3F3F00790AA2D5200314300509B91044
:1002C500020404B9080104A2D52006025001042045
:1002D50002689202B536005034C0E07F2030031921
:1002E5007F30A20272067205500F120312C202C2BB
:1002F50006C205C2087F30800F300503E9C0E01251
:100305000061300503D0E0F9D0E0B536CC300517F3
:100315007F30B9100C1200617F583004077F788058
:1003250003B908031200613002057F2D0200617FC9
:10033500202008F87F2B2006F322920280CF286E1A
:10034500756C6C2900D2011200263001F8C20178C3
:100355003630D50108F60200CC2D5043495812001D
:10036500262403B405004001E490035E9312005275
:0D037500743A120052D2037536040201B131
:10058400BB010689828A83E0225002E722BBFE0275
:09059400E32289828A83E49322A8
:10059D00BB010CE58229F582E5833AF583E0225013
:1005AD0006E92582F8E622BBFE06E92582F8E2225D
:0D05BD00E58229F582E5833AF583E4932277
:1005CA00BB010689828A83F0225002F722BBFE0110
:0205DA00F3220A
:1005DC00FAE6FB0808E6F925F0F618E6CA3AF62220
:1005EC00D083D082F8E4937012740193700DA3A39E
:1005FC0093F8740193F5828883E4737402936860B2
:06060C00EFA3A3A380DFB1
:00000001FF
