:030000000201DF1B
:0C01DF00787FE4F6D8FD75811A02022634
:10002600120322120308E51845176003020128206F
:10003600B6030200DD20B7030200DD20B50302008F
:10004600DDE514451360030200CFF515209427E57E
:1000560008B4520E7511007512C8750FFF75103869
:10006600800C7511FF751238750F007510C8751361
:100076000175149005152093147511FF75123875C6
:100086000F007510C87513007514C8051520921455
:100096007511007512C8750FFF7510387513007548
:1000A60014C8051520B20E7511007512C8750F001B
:1000B6007510C80515E515600302002CF5117512BB
:1000C600C8F50F7510C802002C30B20302002CE4EC
:1000D600F513F51402002C20B512750F007510C823
:1000E6007511007512C87517007518C820B71575F3
:1000F6000F007510C87511FF75123875084C751705
:10010600007518C830B60302002C750FFF7510383D
:100116007511007512C87508527517007518C80252
:10012600002C30B20302002CE4F517F51802002C5F
:1002C00001160002170000020D056602090566010D
:1002D0000BFF010C000213000001080001150002D1
:0702E000110000020F0000F5
:10030800438910758DDCE4F58BD2AFD2ABD28ED297
:0A031800BB7590FF75B0FFD2BB2249
:03001B00020136A9
:10013600C0E0C0D0E5102466F50EE50F3405F50DD8
:10014600C374669512F50A74059511F509850B8D2C
:10015600850C8BD3E5189400E51794004008E51844
:10016600151870021517D3E5149400E51394004092
:1001760008E5141514700215130516E516D3940731
:100186004003751600E5161424FD5014602824FC5F
:10019600502E2408703E750BF1750C9AD29080345F
:1001A600C374FF950A74FF9509F50BC374FF950A8E
:1001B600F50CC290801E750BF1750C9AD2918014C5
:1001C600C374FF950E74FF950DF50BC374FF950E62
:0901D600F50CC291D0D0D0E0324A
:10032200D2CCD2CD75CBFF75CADC759850E4F58777
:09033200D2CAD2AFD2ADC2BC2286
:03002300020014C4
:0500140085991AC29855
:0100190032B4
:080349008F1912033BAF1922CA
:0E033B00C2ACC2998F993099FDC299D2AC2202
:100003007C007D0A12026BEF1F70011E144E70F705
:0100130022CA
:1002E800E4FDFCC3ED9FEC9E5015E4FAFB0BBB004C
:0F02F800010AEB64794A70F50DBD00010C80E43A
:0103070022D3
:1001EB00020026E493A3F8E493A34003F68001F204
:1001FB0008DFF48029E493A3F85407240CC8C33315
:10020B00C4540F4420C8834004F456800146F6DFE3
:10021B00E4800B01020408102040809002C0E47EB1
:10022B00019360BCA3FF543F30E509541FFEE493D8
:10023B00A360010ECF54C025E060A840B8E493A39F
:10024B00FAE493A3F8E493A3C8C582C8CAC583CACA
:10025B00F0A3C8C582C8CAC583CADFE9DEE780BE82
:0102E7000016
:10026B00BC000BBE0029EF8DF084FFADF022E4CC77
:10027B00F875F008EF2FFFEE33FEEC33FCEE9DEC40
:10028B00984005FCEE9DFE0FD5F0E9E4CEFD22ED86
:10029B00F8F5F0EE8420D21CFEADF075F008EF2FD0
:1002AB00FFED33FD4007985006D5F0F222C398FDC1
:0502BB000FD5F0EA225E
:00000001FF
