:030000000206DA1B
:0C06DA00787FE4F6D8FD75814D02072101
:10084D0012000612087D120834754DEE12038280D7
:01085D00FB9F
:10083400D2CCD2CD75CBFF75CADC759850E4F58760
:09084400D2CAD2AFD2ADC2BC226F
:0300230002088E42
:05088E0085993DC298B0
:010893003232
:080886008F3C12086FAF3C2209
:0E086F00C2ACC2998F993099FDC299D2AC22C9
:1007D400011600011700020C056602080566010AED
:0C07E400FF010B0002100000020E0000DC
:1007AA00E54DC4540F24F9FFE434FFFE7C007D1E9E
:1007BA001205008E128F13E54D540F24F9FFE4340D
:0A07CA00FFFE1205008E148F1522A9
:10000600438910758DDCE4F58BD2AFD2ABD28ED29C
:02001600BB220B
:03001B000205F5E6
:1005F500C0E0C0D0E50F2466F50DE50E3405F50C19
:10060500C374669511F50974059510F508850A8D6D
:10061500850B8BE517D39400400215170516E516D3
:10062500D394074003751600053FE53F7002053E6C
:10063500E517704D30B71430B61130B50E8514106E
:1006450085151185120E85130F803620B70F750E8F
:10065500FF750F387510007511C875175020B60F46
:10066500750E00750FC87510FF7511387517502078
:10067500B50F750E00750FC87510007511C8751783
:1006850064E5161424FD5014602824FC502E24081B
:10069500703E750AF1750B9AD2908034C374FF953C
:1006A5000974FF9508F50AC374FF9509F50BC29007
:1006B500801E750AF1750B9AD2918014C374FF954B
:1006C5000D74FF950CF50AC374FF950DF50BC291DA
:0506D500D0D0D0E0329E
:100766004952414E20626567696E21210D0A005487
:10077600696D6520697320746F6F206C6F6E6720DA
:1007860021210D0A00497256616C75655B305D3A30
:100796002025780A00436F6E74726F6C203A20250C
:0407A600780D0A00C0
:0907F000014D77023E0000C10931
:04081A007F017E00DC
:10081E00EF1FAA0670011E4A600BE4FDEDC3940D96
:05082E0050EE0D80F703
:0108330022A2
:09087D00D288D2A8C2B8D2AF2281
:03000300020018E0
:03001800D20932D8
:10038200C2A8C209E4F54030B2030204FA7BFF7A44
:1003920007796612008875260375275220B218D392
:1003A200E5279400E5269400400D12081AE527156A
:1003B2002770E9152680E520B20302049A7526010A
:1003C2007527F430B218D3E5279400E5269400404F
:1003D2000D12081AE527152770E9152680E5E4F5C0
:1003E20024F525E4F522F52375260075273C20B275
:1003F20018D3E5279400E5269400400D12081AE56B
:1004020027152770E9152680E57526017527F43032
:10041200B22FD3E5279400E5269400402412081A4F
:100422000540E527152770021526D3E540942C7464
:1004320080948140DA7BFF7A077975120088D2A80E
:1004420022AD25ED25E02441F8C000E6FE08E6FFD6
:10045200EEC313FEEF13D000A60608F6E540C394E0
:1004620008400AED25E02442F8E64480F6E4F5402F
:100472000523E52370020522C39408E52294005067
:10048200030203EA0525E52570020524C39401E56C
:1004920024940050030203E57BFF7A07798B8541A0
:1004A2002B85422C120088E542648D454170028002
:1004B20033E542642B45417004F54D802AE54264E0
:1004C2008745417005754DE0801DE54264894541CF
:1004D2007005754D0E8010E54264814541700575C9
:1004E2004D778003754DEEE4F53EF53F7BFF7A07CD
:0D04F200799B854D2B1200881207AAD2A815
:0104FF0022DA
:10085E007C007D0A120512EF1F70011E144E70F7F8
:01086E002267
:1007FA00E4FDFCC3ED9FEC9E5015E4FAFB0BBB0035
:0F080A00010AEB64794A70F50DBD00010C80E422
:0108190022BC
:1006E60002084DE493A3F8E493A34003F68001F2D5
:1006F60008DFF48029E493A3F85407240CC8C33315
:10070600C4540F4420C8834004F456800146F6DFE3
:10071600E4800B01020408102040809007D4E47E98
:10072600019360BCA3FF543F30E509541FFEE493D8
:10073600A360010ECF54C025E060A840B8E493A39F
:10074600FAE493A3F8E493A3C8C582C8CAC583CACA
:10075600F0A3C8C582C8CAC583CADFE9DEE780BE82
:0107F90000FF
:10050000EF8DF0A4A8F0CF8CF0A428CE8DF0A42E0F
:02051000FE22C9
:10051200BC000BBE0029EF8DF084FFADF022E4CCCD
:10052200F875F008EF2FFFEE33FEEC33FCEE9DEC96
:10053200984005FCEE9DFE0FD5F0E9E4CEFD22EDDC
:10054200F8F5F0EE8420D21CFEADF075F008EF2F26
:10055200FFED33FD4007985006D5F0F222C398FD17
:050562000FD5F0EA22B4
:10002600E537242BF8E60537227828300702782BA7
:10003600E475F0011205BF0205672000EB7F2ED2A2
:10004600008018EF540F2490D43440D4FF30040BB2
:10005600EF24BFB41A0050032461FFE5386002158F
:1000660038053BE53B7002053A30070D7828E47504
:10007600F0011205BFEF0205AD0208867403D20730
:100086008003E4C207F5378B288A29892AE4F538E4
:10009600F53AF53BE53860077F2012006180F5757B
:1000A60039FFC201C200C202C203C205C206C208AB
:1000B60012002FFF700D3007057F00120072AF3B54
:1000C600AE3A22B4255FC2D5C20412002FFF24D057
:1000D600B40A00501A75F00A783830D50508B6FF0C
:1000E6000106C6A426F620D5047002D20380D924C0
:1000F600CFB41A00EF5004C2E5D204020272D20154
:1001060080C6D20080C0D20280BCD2D580BAD205C9
:1001160080B47F201200612002077401B5380040C8
:10012600F1120026FF12006102009AD208D2068060
:1001360095120026FB120026FA120026F94A4B7089
:100146000679437A037BFF20022EE538602A7E007B
:100156008E8275830012058060060EEE653970F09A
:10016600C2D5EBC0E0EAC0E0E9C0E0EE1202B9D0C9
:10017600E0F9D0E0FAD0E0FB120567FF60AAEBC019
:10018600E0EAC0E0E9C0E0120061D0E02401F9D065
:10019600E03400FAD0E0FBE5390460DCD539D980DB
:1001A600877BFF7A0279B5D202809C79108002792A
:1001B60008C206C2088008D2D5790A8004790AC224
:1001C600D5E539047002F539E4FAFDFEFF12002682
:1001D600FC7B08200113120026FD7B1030000A125A
:1001E6000026FE120026FF7B20EC3382D592D550E6
:1001F60013C3E43000069FFFE49EFEE42001039D46
:10020600FDE49CFCE4CBF8C201EC700CCFCECDCC67
:10021600E824F8F870F38017C3EF33FFEE33FEEDF2
:1002260033FDEC33FCEB33FB994002FB0FD8E9EBD3
:10023600300105F8D0E0C448B201C0E00AEC4D4EEA
:100246004F78207B0070C2EAB5390040BCC0E0128E
:1002560002BBD0F0D0E0200104C4C0E0C4B201C0AB
:10026600F012004AD0F0D5F0EB02009A1205CF0149
:10027600375301B15801084C01044201B54F01BD85
:0F0286004401BD49011D4301C35501A74601A70E
:100295004501A747036350010C2D01102E01332B97
:1002A500011423013120034C2A00CC480000012B06
:1002B5003F3F3F00790AA2D5200314300509B91044
:1002C500020404B9080104A2D52006025001042045
:1002D50002689202B538005034C0E07F203003191F
:1002E5007F30A20272067205500F120312C202C2BB
:1002F50006C205C2087F30800F300503E9C0E01251
:100305000061300503D0E0F9D0E0B538CC300517F1
:100315007F30B9100C1200617F583004077F788058
:1003250003B908031200613002057F2D0200617FC9
:10033500202008F87F2B2006F322920280CF286E1A
:10034500756C6C2900D2011200263001F8C20178C3
:100355003830D50108F60200CC2D5043495812001B
:10036500262403B405004001E490035E9312005275
:0D037500743A120052D2037538040201B12F
:10056700BB010689828A83E0225002E722BBFE0292
:09057700E32289828A83E49322C5
:10058000BB010CE58229F582E5833AF583E0225030
:1005900006E92582F8E622BBFE06E92582F8E2227A
:0D05A000E58229F582E5833AF583E4932294
:1005AD00BB010689828A83F0225002F722BBFE012D
:0205BD00F32227
:1005BF00FAE6FB0808E6F925F0F618E6CA3AF6223D
:1005CF00D083D082F8E4937012740193700DA3A3BB
:1005DF0093F8740193F5828883E4737402936860CF
:0605EF00EFA3A3A380DFCF
:00000001FF
